{"abi":[{"type":"constructor","inputs":[{"name":"initialOwner","type":"address","internalType":"address"},{"name":"_nft","type":"address","internalType":"address"},{"name":"_coin","type":"address","internalType":"address"}],"stateMutability":"nonpayable"},{"type":"function","name":"coin","inputs":[],"outputs":[{"name":"","type":"address","internalType":"contract IERC20"}],"stateMutability":"view"},{"type":"function","name":"feePercent","inputs":[],"outputs":[{"name":"","type":"uint256","internalType":"uint256"}],"stateMutability":"view"},{"type":"function","name":"getAssetDetails","inputs":[{"name":"id","type":"uint256","internalType":"uint256"}],"outputs":[{"name":"","type":"tuple","internalType":"struct BaseMartket.NFTAsset","components":[{"name":"id","type":"uint256","internalType":"uint256"},{"name":"price","type":"uint128","internalType":"uint128"},{"name":"owner","type":"address","internalType":"address"}]}],"stateMutability":"view"},{"type":"function","name":"getListedAssets","inputs":[{"name":"skip","type":"uint8","internalType":"uint8"},{"name":"limit","type":"uint8","internalType":"uint8"}],"outputs":[{"name":"","type":"tuple[]","internalType":"struct BaseMartket.NFTAsset[]","components":[{"name":"id","type":"uint256","internalType":"uint256"},{"name":"price","type":"uint128","internalType":"uint128"},{"name":"owner","type":"address","internalType":"address"}]}],"stateMutability":"view"},{"type":"function","name":"listNFT","inputs":[{"name":"id","type":"uint256","internalType":"uint256"},{"name":"price","type":"uint128","internalType":"uint128"}],"outputs":[{"name":"","type":"bool","internalType":"bool"}],"stateMutability":"nonpayable"},{"type":"function","name":"nft","inputs":[],"outputs":[{"name":"","type":"address","internalType":"contract IERC721"}],"stateMutability":"view"},{"type":"function","name":"nfts","inputs":[{"name":"","type":"uint256","internalType":"uint256"}],"outputs":[{"name":"id","type":"uint256","internalType":"uint256"},{"name":"price","type":"uint128","internalType":"uint128"},{"name":"owner","type":"address","internalType":"address"}],"stateMutability":"view"},{"type":"function","name":"owner","inputs":[],"outputs":[{"name":"","type":"address","internalType":"address"}],"stateMutability":"view"},{"type":"function","name":"pause","inputs":[],"outputs":[],"stateMutability":"nonpayable"},{"type":"function","name":"paused","inputs":[],"outputs":[{"name":"","type":"bool","internalType":"bool"}],"stateMutability":"view"},{"type":"function","name":"purchaseNFT","inputs":[{"name":"id","type":"uint256","internalType":"uint256"}],"outputs":[],"stateMutability":"nonpayable"},{"type":"function","name":"renounceOwnership","inputs":[],"outputs":[],"stateMutability":"nonpayable"},{"type":"function","name":"setPlatformFee","inputs":[{"name":"_fee","type":"uint256","internalType":"uint256"}],"outputs":[],"stateMutability":"nonpayable"},{"type":"function","name":"transferOwnership","inputs":[{"name":"newOwner","type":"address","internalType":"address"}],"outputs":[],"stateMutability":"nonpayable"},{"type":"function","name":"unpause","inputs":[],"outputs":[],"stateMutability":"nonpayable"},{"type":"event","name":"OwnershipTransferred","inputs":[{"name":"previousOwner","type":"address","indexed":true,"internalType":"address"},{"name":"newOwner","type":"address","indexed":true,"internalType":"address"}],"anonymous":false},{"type":"event","name":"Paused","inputs":[{"name":"account","type":"address","indexed":false,"internalType":"address"}],"anonymous":false},{"type":"event","name":"Unpaused","inputs":[{"name":"account","type":"address","indexed":false,"internalType":"address"}],"anonymous":false},{"type":"error","name":"EnforcedPause","inputs":[]},{"type":"error","name":"ExpectedPause","inputs":[]},{"type":"error","name":"InvalidAddress","inputs":[]},{"type":"error","name":"OwnableInvalidOwner","inputs":[{"name":"owner","type":"address","internalType":"address"}]},{"type":"error","name":"OwnableUnauthorizedAccount","inputs":[{"name":"account","type":"address","internalType":"address"}]},{"type":"error","name":"ReentrancyGuardReentrantCall","inputs":[]}],"bytecode":{"object":"0x60c06040526002600655348015610014575f5ffd5b5060405161248d38038061248d833981810160405281019061003691906102e9565b825f73ffffffffffffffffffffffffffffffffffffffff168173ffffffffffffffffffffffffffffffffffffffff16036100a7575f6040517f1e4fbdf700000000000000000000000000000000000000000000000000000000815260040161009e9190610348565b60405180910390fd5b6100b6816101ca60201b60201c565b50600180819055505f73ffffffffffffffffffffffffffffffffffffffff168273ffffffffffffffffffffffffffffffffffffffff16148061012357505f73ffffffffffffffffffffffffffffffffffffffff168173ffffffffffffffffffffffffffffffffffffffff16145b1561015a576040517fe6c4247b00000000000000000000000000000000000000000000000000000000815260040160405180910390fd5b8073ffffffffffffffffffffffffffffffffffffffff1660808173ffffffffffffffffffffffffffffffffffffffff16815250508173ffffffffffffffffffffffffffffffffffffffff1660a08173ffffffffffffffffffffffffffffffffffffffff1681525050505050610361565b5f5f5f9054906101000a900473ffffffffffffffffffffffffffffffffffffffff169050815f5f6101000a81548173ffffffffffffffffffffffffffffffffffffffff021916908373ffffffffffffffffffffffffffffffffffffffff1602179055508173ffffffffffffffffffffffffffffffffffffffff168173ffffffffffffffffffffffffffffffffffffffff167f8be0079c531659141344cd1fd0a4f28419497f9722a3daafe3b4186f6b6457e060405160405180910390a35050565b5f5ffd5b5f73ffffffffffffffffffffffffffffffffffffffff82169050919050565b5f6102b88261028f565b9050919050565b6102c8816102ae565b81146102d2575f5ffd5b50565b5f815190506102e3816102bf565b92915050565b5f5f5f60608486031215610300576102ff61028b565b5b5f61030d868287016102d5565b935050602061031e868287016102d5565b925050604061032f868287016102d5565b9150509250925092565b610342816102ae565b82525050565b5f60208201905061035b5f830184610339565b92915050565b60805160a0516120cc6103c15f395f8181610748015281816108c90152818161091501528181610a6e01528181610b230152610d0001525f81816102c3015281816103e6015281816104d50152818161060801526106a601526120cc5ff3fe608060405234801561000f575f5ffd5b50600436106100f3575f3560e01c80635c975abb116100955780638da5cb5b116100645780638da5cb5b14610227578063a1f24b3d14610245578063d2ba02c014610275578063f2fde38b146102a5576100f3565b80635c975abb146101d7578063715018a6146101f55780637fd6f15c146101ff5780638456cb591461021d576100f3565b8063265aa621116100d1578063265aa6211461014d5780633f4ba83a1461017f57806347ccca021461018957806356b2a1fb146101a7576100f3565b806311df9995146100f757806312e8e2c314610115578063150bde0314610131575b5f5ffd5b6100ff6102c1565b60405161010c9190611731565b60405180910390f35b61012f600480360381019061012a9190611781565b6102e5565b005b61014b60048036038101906101469190611781565b6102f7565b005b61016760048036038101906101629190611781565b610855565b60405161017693929190611805565b60405180910390f35b6101876108b5565b005b6101916108c7565b60405161019e919061185a565b60405180910390f35b6101c160048036038101906101bc919061189d565b6108eb565b6040516101ce91906118f5565b60405180910390f35b6101df610d9b565b6040516101ec91906118f5565b60405180910390f35b6101fd610db0565b005b610207610dc3565b604051610214919061190e565b60405180910390f35b610225610dc9565b005b61022f610ddb565b60405161023c9190611927565b60405180910390f35b61025f600480360381019061025a9190611781565b610e02565b60405161026c91906119ad565b60405180910390f35b61028f600480360381019061028a91906119fc565b610ed4565b60405161029c9190611b22565b60405180910390f35b6102bf60048036038101906102ba9190611b6c565b6110fa565b005b7f000000000000000000000000000000000000000000000000000000000000000081565b6102ed61117e565b8060068190555050565b6102ff611205565b61030761124b565b5f60035f8381526020019081526020015f206040518060600160405290815f8201548152602001600182015f9054906101000a90046fffffffffffffffffffffffffffffffff166fffffffffffffffffffffffffffffffff166fffffffffffffffffffffffffffffffff168152602001600282015f9054906101000a900473ffffffffffffffffffffffffffffffffffffffff1673ffffffffffffffffffffffffffffffffffffffff1673ffffffffffffffffffffffffffffffffffffffff1681525050905080602001516fffffffffffffffffffffffffffffffff167f000000000000000000000000000000000000000000000000000000000000000073ffffffffffffffffffffffffffffffffffffffff166370a08231336040518263ffffffff1660e01b815260040161043d9190611927565b602060405180830381865afa158015610458573d5f5f3e3d5ffd5b505050506040513d601f19601f8201168201806040525081019061047c9190611bab565b116104bc576040517f08c379a00000000000000000000000000000000000000000000000000000000081526004016104b390611c30565b60405180910390fd5b80602001516fffffffffffffffffffffffffffffffff167f000000000000000000000000000000000000000000000000000000000000000073ffffffffffffffffffffffffffffffffffffffff1663dd62ed3e33306040518363ffffffff1660e01b815260040161052e929190611c4e565b602060405180830381865afa158015610549573d5f5f3e3d5ffd5b505050506040513d601f19601f8201168201806040525081019061056d9190611bab565b116105ad576040517f08c379a00000000000000000000000000000000000000000000000000000000081526004016105a490611cbf565b60405180910390fd5b5f61271060065483602001516fffffffffffffffffffffffffffffffff166105d59190611d0a565b6105df9190611d78565b90505f8183602001516fffffffffffffffffffffffffffffffff166106049190611da8565b90507f000000000000000000000000000000000000000000000000000000000000000073ffffffffffffffffffffffffffffffffffffffff166323b872dd3330856040518463ffffffff1660e01b815260040161066393929190611ddb565b6020604051808303815f875af115801561067f573d5f5f3e3d5ffd5b505050506040513d601f19601f820116820180604052508101906106a39190611e3a565b507f000000000000000000000000000000000000000000000000000000000000000073ffffffffffffffffffffffffffffffffffffffff166323b872dd338560400151846040518463ffffffff1660e01b815260040161070593929190611ddb565b6020604051808303815f875af1158015610721573d5f5f3e3d5ffd5b505050506040513d601f19601f820116820180604052508101906107459190611e3a565b507f000000000000000000000000000000000000000000000000000000000000000073ffffffffffffffffffffffffffffffffffffffff166323b872dd3033876040518463ffffffff1660e01b81526004016107a393929190611ddb565b5f604051808303815f87803b1580156107ba575f5ffd5b505af11580156107cc573d5f5f3e3d5ffd5b5050505060035f8581526020019081526020015f205f5f82015f9055600182015f6101000a8154906fffffffffffffffffffffffffffffffff0219169055600282015f6101000a81549073ffffffffffffffffffffffffffffffffffffffff0219169055505061084684600461128c90919063ffffffff16565b505050506108526112a3565b50565b6003602052805f5260405f205f91509050805f015490806001015f9054906101000a90046fffffffffffffffffffffffffffffffff1690806002015f9054906101000a900473ffffffffffffffffffffffffffffffffffffffff16905083565b6108bd61117e565b6108c56112ac565b565b7f000000000000000000000000000000000000000000000000000000000000000081565b5f6108f4611205565b6108fc61124b565b3373ffffffffffffffffffffffffffffffffffffffff167f000000000000000000000000000000000000000000000000000000000000000073ffffffffffffffffffffffffffffffffffffffff16636352211e856040518263ffffffff1660e01b815260040161096c919061190e565b602060405180830381865afa158015610987573d5f5f3e3d5ffd5b505050506040513d601f19601f820116820180604052508101906109ab9190611e79565b73ffffffffffffffffffffffffffffffffffffffff1614610a01576040517f08c379a00000000000000000000000000000000000000000000000000000000081526004016109f890611eee565b60405180910390fd5b5f826fffffffffffffffffffffffffffffffff1611610a55576040517f08c379a0000000000000000000000000000000000000000000000000000000008152600401610a4c90611f56565b60405180910390fd5b3073ffffffffffffffffffffffffffffffffffffffff167f000000000000000000000000000000000000000000000000000000000000000073ffffffffffffffffffffffffffffffffffffffff1663081812fc856040518263ffffffff1660e01b8152600401610ac5919061190e565b602060405180830381865afa158015610ae0573d5f5f3e3d5ffd5b505050506040513d601f19601f82011682018060405250810190610b049190611e79565b73ffffffffffffffffffffffffffffffffffffffff161480610bbc57507f000000000000000000000000000000000000000000000000000000000000000073ffffffffffffffffffffffffffffffffffffffff1663e985e9c533306040518363ffffffff1660e01b8152600401610b7c929190611c4e565b602060405180830381865afa158015610b97573d5f5f3e3d5ffd5b505050506040513d601f19601f82011682018060405250810190610bbb9190611e3a565b5b610bfb576040517f08c379a0000000000000000000000000000000000000000000000000000000008152600401610bf290611fbe565b60405180910390fd5b5f6040518060600160405280858152602001846fffffffffffffffffffffffffffffffff168152602001610c2d610ddb565b73ffffffffffffffffffffffffffffffffffffffff1681525090508060035f8681526020019081526020015f205f820151815f01556020820151816001015f6101000a8154816fffffffffffffffffffffffffffffffff02191690836fffffffffffffffffffffffffffffffff1602179055506040820151816002015f6101000a81548173ffffffffffffffffffffffffffffffffffffffff021916908373ffffffffffffffffffffffffffffffffffffffff160217905550905050610cfd84600461130d90919063ffffffff16565b507f000000000000000000000000000000000000000000000000000000000000000073ffffffffffffffffffffffffffffffffffffffff166342842e0e3330876040518463ffffffff1660e01b8152600401610d5b93929190611ddb565b5f604051808303815f87803b158015610d72575f5ffd5b505af1158015610d84573d5f5f3e3d5ffd5b505050506001915050610d956112a3565b92915050565b5f60025f9054906101000a900460ff16905090565b610db861117e565b610dc15f611324565b565b60065481565b610dd161117e565b610dd96113e5565b565b5f5f5f9054906101000a900473ffffffffffffffffffffffffffffffffffffffff16905090565b610e0a611671565b60035f8381526020019081526020015f206040518060600160405290815f8201548152602001600182015f9054906101000a90046fffffffffffffffffffffffffffffffff166fffffffffffffffffffffffffffffffff166fffffffffffffffffffffffffffffffff168152602001600282015f9054906101000a900473ffffffffffffffffffffffffffffffffffffffff1673ffffffffffffffffffffffffffffffffffffffff1673ffffffffffffffffffffffffffffffffffffffff16815250509050919050565b60605f610ee16004611447565b9050808460ff1610610f49575f67ffffffffffffffff811115610f0757610f06611fdc565b5b604051908082528060200260200182016040528015610f4057816020015b610f2d611671565b815260200190600190039081610f255790505b509150506110f4565b5f8460ff1682610f599190611da8565b90505f818560ff1610610f6c5781610f71565b8460ff165b90505f8167ffffffffffffffff811115610f8e57610f8d611fdc565b5b604051908082528060200260200182016040528015610fc757816020015b610fb4611671565b815260200190600190039081610fac5790505b5090505f5f90505b828110156110eb575f610ffa828a60ff16610fea9190612009565b600461145a90919063ffffffff16565b905060035f8281526020019081526020015f206040518060600160405290815f8201548152602001600182015f9054906101000a90046fffffffffffffffffffffffffffffffff166fffffffffffffffffffffffffffffffff166fffffffffffffffffffffffffffffffff168152602001600282015f9054906101000a900473ffffffffffffffffffffffffffffffffffffffff1673ffffffffffffffffffffffffffffffffffffffff1673ffffffffffffffffffffffffffffffffffffffff16815250508383815181106110d2576110d161203c565b5b6020026020010181905250508080600101915050610fcf565b50809450505050505b92915050565b61110261117e565b5f73ffffffffffffffffffffffffffffffffffffffff168173ffffffffffffffffffffffffffffffffffffffff1603611172575f6040517f1e4fbdf70000000000000000000000000000000000000000000000000000000081526004016111699190611927565b60405180910390fd5b61117b81611324565b50565b611186611471565b73ffffffffffffffffffffffffffffffffffffffff166111a4610ddb565b73ffffffffffffffffffffffffffffffffffffffff1614611203576111c7611471565b6040517f118cdaa70000000000000000000000000000000000000000000000000000000081526004016111fa9190611927565b60405180910390fd5b565b600260015403611241576040517f3ee5aeb500000000000000000000000000000000000000000000000000000000815260040160405180910390fd5b6002600181905550565b611253610d9b565b1561128a576040517fd93c066500000000000000000000000000000000000000000000000000000000815260040160405180910390fd5b565b5f61129b835f01835f1b611478565b905092915050565b60018081905550565b6112b4611574565b5f60025f6101000a81548160ff0219169083151502179055507f5db9ee0a495bf2e6ff9c91a7834c1ba4fdd244a5e8aa4e537bd38aeae4b073aa6112f6611471565b6040516113039190611927565b60405180910390a1565b5f61131c835f01835f1b6115b4565b905092915050565b5f5f5f9054906101000a900473ffffffffffffffffffffffffffffffffffffffff169050815f5f6101000a81548173ffffffffffffffffffffffffffffffffffffffff021916908373ffffffffffffffffffffffffffffffffffffffff1602179055508173ffffffffffffffffffffffffffffffffffffffff168173ffffffffffffffffffffffffffffffffffffffff167f8be0079c531659141344cd1fd0a4f28419497f9722a3daafe3b4186f6b6457e060405160405180910390a35050565b6113ed61124b565b600160025f6101000a81548160ff0219169083151502179055507f62e78cea01bee320cd4e420270b5ea74000d11b0c9f74754ebdbfc544b05a258611430611471565b60405161143d9190611927565b60405180910390a1565b5f611453825f0161161b565b9050919050565b5f611467835f018361162a565b5f1c905092915050565b5f33905090565b5f5f836001015f8481526020019081526020015f205490505f8114611569575f6001826114a59190611da8565b90505f6001865f01805490506114bb9190611da8565b9050808214611521575f865f0182815481106114da576114d961203c565b5b905f5260205f200154905080875f0184815481106114fb576114fa61203c565b5b905f5260205f20018190555083876001015f8381526020019081526020015f2081905550505b855f0180548061153457611533612069565b5b600190038181905f5260205f20015f90559055856001015f8681526020019081526020015f205f90556001935050505061156e565b5f9150505b92915050565b61157c610d9b565b6115b2576040517f8dfc202b00000000000000000000000000000000000000000000000000000000815260040160405180910390fd5b565b5f6115bf8383611651565b61161157825f0182908060018154018082558091505060019003905f5260205f20015f9091909190915055825f0180549050836001015f8481526020019081526020015f208190555060019050611615565b5f90505b92915050565b5f815f01805490509050919050565b5f825f0182815481106116405761163f61203c565b5b905f5260205f200154905092915050565b5f5f836001015f8481526020019081526020015f20541415905092915050565b60405180606001604052805f81526020015f6fffffffffffffffffffffffffffffffff1681526020015f73ffffffffffffffffffffffffffffffffffffffff1681525090565b5f73ffffffffffffffffffffffffffffffffffffffff82169050919050565b5f819050919050565b5f6116f96116f46116ef846116b7565b6116d6565b6116b7565b9050919050565b5f61170a826116df565b9050919050565b5f61171b82611700565b9050919050565b61172b81611711565b82525050565b5f6020820190506117445f830184611722565b92915050565b5f5ffd5b5f819050919050565b6117608161174e565b811461176a575f5ffd5b50565b5f8135905061177b81611757565b92915050565b5f602082840312156117965761179561174a565b5b5f6117a38482850161176d565b91505092915050565b6117b58161174e565b82525050565b5f6fffffffffffffffffffffffffffffffff82169050919050565b6117df816117bb565b82525050565b5f6117ef826116b7565b9050919050565b6117ff816117e5565b82525050565b5f6060820190506118185f8301866117ac565b61182560208301856117d6565b61183260408301846117f6565b949350505050565b5f61184482611700565b9050919050565b6118548161183a565b82525050565b5f60208201905061186d5f83018461184b565b92915050565b61187c816117bb565b8114611886575f5ffd5b50565b5f8135905061189781611873565b92915050565b5f5f604083850312156118b3576118b261174a565b5b5f6118c08582860161176d565b92505060206118d185828601611889565b9150509250929050565b5f8115159050919050565b6118ef816118db565b82525050565b5f6020820190506119085f8301846118e6565b92915050565b5f6020820190506119215f8301846117ac565b92915050565b5f60208201905061193a5f8301846117f6565b92915050565b6119498161174e565b82525050565b611958816117bb565b82525050565b611967816117e5565b82525050565b606082015f8201516119815f850182611940565b506020820151611994602085018261194f565b5060408201516119a7604085018261195e565b50505050565b5f6060820190506119c05f83018461196d565b92915050565b5f60ff82169050919050565b6119db816119c6565b81146119e5575f5ffd5b50565b5f813590506119f6816119d2565b92915050565b5f5f60408385031215611a1257611a1161174a565b5b5f611a1f858286016119e8565b9250506020611a30858286016119e8565b9150509250929050565b5f81519050919050565b5f82825260208201905092915050565b5f819050602082019050919050565b606082015f820151611a775f850182611940565b506020820151611a8a602085018261194f565b506040820151611a9d604085018261195e565b50505050565b5f611aae8383611a63565b60608301905092915050565b5f602082019050919050565b5f611ad082611a3a565b611ada8185611a44565b9350611ae583611a54565b805f5b83811015611b15578151611afc8882611aa3565b9750611b0783611aba565b925050600181019050611ae8565b5085935050505092915050565b5f6020820190508181035f830152611b3a8184611ac6565b905092915050565b611b4b816117e5565b8114611b55575f5ffd5b50565b5f81359050611b6681611b42565b92915050565b5f60208284031215611b8157611b8061174a565b5b5f611b8e84828501611b58565b91505092915050565b5f81519050611ba581611757565b92915050565b5f60208284031215611bc057611bbf61174a565b5b5f611bcd84828501611b97565b91505092915050565b5f82825260208201905092915050565b7f494e53554646494349454e545f42414c414e43450000000000000000000000005f82015250565b5f611c1a601483611bd6565b9150611c2582611be6565b602082019050919050565b5f6020820190508181035f830152611c4781611c0e565b9050919050565b5f604082019050611c615f8301856117f6565b611c6e60208301846117f6565b9392505050565b7f494e53554646494349454e545f414c4c4f57414e4345000000000000000000005f82015250565b5f611ca9601683611bd6565b9150611cb482611c75565b602082019050919050565b5f6020820190508181035f830152611cd681611c9d565b9050919050565b7f4e487b71000000000000000000000000000000000000000000000000000000005f52601160045260245ffd5b5f611d148261174e565b9150611d1f8361174e565b9250828202611d2d8161174e565b91508282048414831517611d4457611d43611cdd565b5b5092915050565b7f4e487b71000000000000000000000000000000000000000000000000000000005f52601260045260245ffd5b5f611d828261174e565b9150611d8d8361174e565b925082611d9d57611d9c611d4b565b5b828204905092915050565b5f611db28261174e565b9150611dbd8361174e565b9250828203905081811115611dd557611dd4611cdd565b5b92915050565b5f606082019050611dee5f8301866117f6565b611dfb60208301856117f6565b611e0860408301846117ac565b949350505050565b611e19816118db565b8114611e23575f5ffd5b50565b5f81519050611e3481611e10565b92915050565b5f60208284031215611e4f57611e4e61174a565b5b5f611e5c84828501611e26565b91505092915050565b5f81519050611e7381611b42565b92915050565b5f60208284031215611e8e57611e8d61174a565b5b5f611e9b84828501611e65565b91505092915050565b7f4e4f545f414c4c4f5745440000000000000000000000000000000000000000005f82015250565b5f611ed8600b83611bd6565b9150611ee382611ea4565b602082019050919050565b5f6020820190508181035f830152611f0581611ecc565b9050919050565b7f50524943455f213e5f5a45524f000000000000000000000000000000000000005f82015250565b5f611f40600d83611bd6565b9150611f4b82611f0c565b602082019050919050565b5f6020820190508181035f830152611f6d81611f34565b9050919050565b7f4e4f545f415050524f56454400000000000000000000000000000000000000005f82015250565b5f611fa8600c83611bd6565b9150611fb382611f74565b602082019050919050565b5f6020820190508181035f830152611fd581611f9c565b9050919050565b7f4e487b71000000000000000000000000000000000000000000000000000000005f52604160045260245ffd5b5f6120138261174e565b915061201e8361174e565b925082820190508082111561203657612035611cdd565b5b92915050565b7f4e487b71000000000000000000000000000000000000000000000000000000005f52603260045260245ffd5b7f4e487b71000000000000000000000000000000000000000000000000000000005f52603160045260245ffdfea26469706673582212209374f42d9802bd1949d2699b1d6eb8162657dadb75049406e1c24dd7b976a77864736f6c634300081c0033","linkReferences":{}},"methodIdentifiers":{"coin()":"11df9995","feePercent()":"7fd6f15c","getAssetDetails(uint256)":"a1f24b3d","getListedAssets(uint8,uint8)":"d2ba02c0","listNFT(uint256,uint128)":"56b2a1fb","nft()":"47ccca02","nfts(uint256)":"265aa621","owner()":"8da5cb5b","pause()":"8456cb59","paused()":"5c975abb","purchaseNFT(uint256)":"150bde03","renounceOwnership()":"715018a6","setPlatformFee(uint256)":"12e8e2c3","transferOwnership(address)":"f2fde38b","unpause()":"3f4ba83a"},"id":25}