{"abi":[{"type":"constructor","inputs":[{"name":"initialOwner","type":"address","internalType":"address"},{"name":"_nft","type":"address","internalType":"address"},{"name":"_coin","type":"address","internalType":"address"}],"stateMutability":"nonpayable"},{"type":"receive","stateMutability":"payable"},{"type":"function","name":"coin","inputs":[],"outputs":[{"name":"","type":"address","internalType":"contract IERC20"}],"stateMutability":"view"},{"type":"function","name":"feePercent","inputs":[],"outputs":[{"name":"","type":"uint256","internalType":"uint256"}],"stateMutability":"view"},{"type":"function","name":"getAssetDetails","inputs":[{"name":"id","type":"uint256","internalType":"uint256"}],"outputs":[{"name":"","type":"tuple","internalType":"struct BaseMarket.NFTAsset","components":[{"name":"id","type":"uint256","internalType":"uint256"},{"name":"price","type":"uint128","internalType":"uint128"},{"name":"owner","type":"address","internalType":"address"}]}],"stateMutability":"view"},{"type":"function","name":"getListedAssets","inputs":[{"name":"skip","type":"uint8","internalType":"uint8"},{"name":"limit","type":"uint8","internalType":"uint8"}],"outputs":[{"name":"","type":"tuple[]","internalType":"struct BaseMarket.NFTAsset[]","components":[{"name":"id","type":"uint256","internalType":"uint256"},{"name":"price","type":"uint128","internalType":"uint128"},{"name":"owner","type":"address","internalType":"address"}]}],"stateMutability":"view"},{"type":"function","name":"listNFT","inputs":[{"name":"id","type":"uint256","internalType":"uint256"},{"name":"price","type":"uint128","internalType":"uint128"}],"outputs":[{"name":"","type":"bool","internalType":"bool"}],"stateMutability":"nonpayable"},{"type":"function","name":"nft","inputs":[],"outputs":[{"name":"","type":"address","internalType":"contract IERC721"}],"stateMutability":"view"},{"type":"function","name":"nfts","inputs":[{"name":"","type":"uint256","internalType":"uint256"}],"outputs":[{"name":"id","type":"uint256","internalType":"uint256"},{"name":"price","type":"uint128","internalType":"uint128"},{"name":"owner","type":"address","internalType":"address"}],"stateMutability":"view"},{"type":"function","name":"onERC721Received","inputs":[{"name":"operator","type":"address","internalType":"address"},{"name":"from","type":"address","internalType":"address"},{"name":"tokenId","type":"uint256","internalType":"uint256"},{"name":"data","type":"bytes","internalType":"bytes"}],"outputs":[{"name":"","type":"bytes4","internalType":"bytes4"}],"stateMutability":"nonpayable"},{"type":"function","name":"owner","inputs":[],"outputs":[{"name":"","type":"address","internalType":"address"}],"stateMutability":"view"},{"type":"function","name":"pause","inputs":[],"outputs":[],"stateMutability":"nonpayable"},{"type":"function","name":"paused","inputs":[],"outputs":[{"name":"","type":"bool","internalType":"bool"}],"stateMutability":"view"},{"type":"function","name":"purchaseNFT","inputs":[{"name":"id","type":"uint256","internalType":"uint256"}],"outputs":[],"stateMutability":"nonpayable"},{"type":"function","name":"renounceOwnership","inputs":[],"outputs":[],"stateMutability":"nonpayable"},{"type":"function","name":"setPlatformFee","inputs":[{"name":"_fee","type":"uint256","internalType":"uint256"}],"outputs":[],"stateMutability":"nonpayable"},{"type":"function","name":"transferOwnership","inputs":[{"name":"newOwner","type":"address","internalType":"address"}],"outputs":[],"stateMutability":"nonpayable"},{"type":"function","name":"unpause","inputs":[],"outputs":[],"stateMutability":"nonpayable"},{"type":"event","name":"AssetListed","inputs":[{"name":"id","type":"uint256","indexed":true,"internalType":"uint256"},{"name":"price","type":"uint128","indexed":false,"internalType":"uint128"},{"name":"seller","type":"address","indexed":true,"internalType":"address"}],"anonymous":false},{"type":"event","name":"AssetPurchased","inputs":[{"name":"id","type":"uint256","indexed":true,"internalType":"uint256"},{"name":"price","type":"uint128","indexed":false,"internalType":"uint128"},{"name":"seller","type":"address","indexed":true,"internalType":"address"},{"name":"buyer","type":"address","indexed":true,"internalType":"address"}],"anonymous":false},{"type":"event","name":"OwnershipTransferred","inputs":[{"name":"previousOwner","type":"address","indexed":true,"internalType":"address"},{"name":"newOwner","type":"address","indexed":true,"internalType":"address"}],"anonymous":false},{"type":"event","name":"Paused","inputs":[{"name":"account","type":"address","indexed":false,"internalType":"address"}],"anonymous":false},{"type":"event","name":"Unpaused","inputs":[{"name":"account","type":"address","indexed":false,"internalType":"address"}],"anonymous":false},{"type":"error","name":"EnforcedPause","inputs":[]},{"type":"error","name":"ExpectedPause","inputs":[]},{"type":"error","name":"InvalidAddress","inputs":[]},{"type":"error","name":"OwnableInvalidOwner","inputs":[{"name":"owner","type":"address","internalType":"address"}]},{"type":"error","name":"OwnableUnauthorizedAccount","inputs":[{"name":"account","type":"address","internalType":"address"}]},{"type":"error","name":"ReentrancyGuardReentrantCall","inputs":[]}],"bytecode":{"object":"0x60c06040526002600655348015610014575f5ffd5b5060405161284e38038061284e833981810160405281019061003691906102e9565b825f73ffffffffffffffffffffffffffffffffffffffff168173ffffffffffffffffffffffffffffffffffffffff16036100a7575f6040517f1e4fbdf700000000000000000000000000000000000000000000000000000000815260040161009e9190610348565b60405180910390fd5b6100b6816101ca60201b60201c565b50600180819055505f73ffffffffffffffffffffffffffffffffffffffff168273ffffffffffffffffffffffffffffffffffffffff16148061012357505f73ffffffffffffffffffffffffffffffffffffffff168173ffffffffffffffffffffffffffffffffffffffff16145b1561015a576040517fe6c4247b00000000000000000000000000000000000000000000000000000000815260040160405180910390fd5b8073ffffffffffffffffffffffffffffffffffffffff1660808173ffffffffffffffffffffffffffffffffffffffff16815250508173ffffffffffffffffffffffffffffffffffffffff1660a08173ffffffffffffffffffffffffffffffffffffffff1681525050505050610361565b5f5f5f9054906101000a900473ffffffffffffffffffffffffffffffffffffffff169050815f5f6101000a81548173ffffffffffffffffffffffffffffffffffffffff021916908373ffffffffffffffffffffffffffffffffffffffff1602179055508173ffffffffffffffffffffffffffffffffffffffff168173ffffffffffffffffffffffffffffffffffffffff167f8be0079c531659141344cd1fd0a4f28419497f9722a3daafe3b4186f6b6457e060405160405180910390a35050565b5f5ffd5b5f73ffffffffffffffffffffffffffffffffffffffff82169050919050565b5f6102b88261028f565b9050919050565b6102c8816102ae565b81146102d2575f5ffd5b50565b5f815190506102e3816102bf565b92915050565b5f5f5f60608486031215610300576102ff61028b565b5b5f61030d868287016102d5565b935050602061031e868287016102d5565b925050604061032f868287016102d5565b9150509250925092565b610342816102ae565b82525050565b5f60208201905061035b5f830184610339565b92915050565b60805160a05161248d6103c15f395f818161088f01528181610a7e01528181610aca01528181610c2301528181610cd80152610eb501525f81816103f60152818161052d0152818161061c0152818161074f01526107ed015261248d5ff3fe6080604052600436106100f6575f3560e01c80635c975abb116100895780638da5cb5b116100585780638da5cb5b1461032a578063a1f24b3d14610354578063d2ba02c014610390578063f2fde38b146103cc57610136565b80635c975abb146102aa578063715018a6146102d45780637fd6f15c146102ea5780638456cb591461031457610136565b8063265aa621116100c5578063265aa621146101f05780633f4ba83a1461022e57806347ccca021461024457806356b2a1fb1461026e57610136565b806311df99951461013a57806312e8e2c314610164578063150b7a021461018c578063150bde03146101c857610136565b36610136576040517f08c379a000000000000000000000000000000000000000000000000000000000815260040161012d90611915565b60405180910390fd5b5f5ffd5b348015610145575f5ffd5b5061014e6103f4565b60405161015b91906119ad565b60405180910390f35b34801561016f575f5ffd5b5061018a60048036038101906101859190611a01565b610418565b005b348015610197575f5ffd5b506101b260048036038101906101ad9190611ac8565b61042a565b6040516101bf9190611b86565b60405180910390f35b3480156101d3575f5ffd5b506101ee60048036038101906101e99190611a01565b61043e565b005b3480156101fb575f5ffd5b5061021660048036038101906102119190611a01565b610a0a565b60405161022593929190611be7565b60405180910390f35b348015610239575f5ffd5b50610242610a6a565b005b34801561024f575f5ffd5b50610258610a7c565b6040516102659190611c3c565b60405180910390f35b348015610279575f5ffd5b50610294600480360381019061028f9190611c7f565b610aa0565b6040516102a19190611cd7565b60405180910390f35b3480156102b5575f5ffd5b506102be610f9f565b6040516102cb9190611cd7565b60405180910390f35b3480156102df575f5ffd5b506102e8610fb4565b005b3480156102f5575f5ffd5b506102fe610fc7565b60405161030b9190611cf0565b60405180910390f35b34801561031f575f5ffd5b50610328610fcd565b005b348015610335575f5ffd5b5061033e610fdf565b60405161034b9190611d09565b60405180910390f35b34801561035f575f5ffd5b5061037a60048036038101906103759190611a01565b611006565b6040516103879190611d8f565b60405180910390f35b34801561039b575f5ffd5b506103b660048036038101906103b19190611dde565b6110d8565b6040516103c39190611f04565b60405180910390f35b3480156103d7575f5ffd5b506103f260048036038101906103ed9190611f24565b6112fe565b005b7f000000000000000000000000000000000000000000000000000000000000000081565b610420611382565b8060068190555050565b5f63150b7a0260e01b905095945050505050565b610446611409565b61044e61144f565b5f60035f8381526020019081526020015f206040518060600160405290815f8201548152602001600182015f9054906101000a90046fffffffffffffffffffffffffffffffff166fffffffffffffffffffffffffffffffff166fffffffffffffffffffffffffffffffff168152602001600282015f9054906101000a900473ffffffffffffffffffffffffffffffffffffffff1673ffffffffffffffffffffffffffffffffffffffff1673ffffffffffffffffffffffffffffffffffffffff1681525050905080602001516fffffffffffffffffffffffffffffffff167f000000000000000000000000000000000000000000000000000000000000000073ffffffffffffffffffffffffffffffffffffffff166370a08231336040518263ffffffff1660e01b81526004016105849190611d09565b602060405180830381865afa15801561059f573d5f5f3e3d5ffd5b505050506040513d601f19601f820116820180604052508101906105c39190611f63565b11610603576040517f08c379a00000000000000000000000000000000000000000000000000000000081526004016105fa90611fd8565b60405180910390fd5b80602001516fffffffffffffffffffffffffffffffff167f000000000000000000000000000000000000000000000000000000000000000073ffffffffffffffffffffffffffffffffffffffff1663dd62ed3e33306040518363ffffffff1660e01b8152600401610675929190611ff6565b602060405180830381865afa158015610690573d5f5f3e3d5ffd5b505050506040513d601f19601f820116820180604052508101906106b49190611f63565b116106f4576040517f08c379a00000000000000000000000000000000000000000000000000000000081526004016106eb90612067565b60405180910390fd5b5f61271060065483602001516fffffffffffffffffffffffffffffffff1661071c91906120b2565b6107269190612120565b90505f8183602001516fffffffffffffffffffffffffffffffff1661074b9190612150565b90507f000000000000000000000000000000000000000000000000000000000000000073ffffffffffffffffffffffffffffffffffffffff166323b872dd3330856040518463ffffffff1660e01b81526004016107aa93929190612183565b6020604051808303815f875af11580156107c6573d5f5f3e3d5ffd5b505050506040513d601f19601f820116820180604052508101906107ea91906121e2565b507f000000000000000000000000000000000000000000000000000000000000000073ffffffffffffffffffffffffffffffffffffffff166323b872dd338560400151846040518463ffffffff1660e01b815260040161084c93929190612183565b6020604051808303815f875af1158015610868573d5f5f3e3d5ffd5b505050506040513d601f19601f8201168201806040525081019061088c91906121e2565b507f000000000000000000000000000000000000000000000000000000000000000073ffffffffffffffffffffffffffffffffffffffff166323b872dd3033876040518463ffffffff1660e01b81526004016108ea93929190612183565b5f604051808303815f87803b158015610901575f5ffd5b505af1158015610913573d5f5f3e3d5ffd5b5050505060035f8581526020019081526020015f205f5f82015f9055600182015f6101000a8154906fffffffffffffffffffffffffffffffff0219169055600282015f6101000a81549073ffffffffffffffffffffffffffffffffffffffff0219169055505061098d84600461149090919063ffffffff16565b503373ffffffffffffffffffffffffffffffffffffffff16836040015173ffffffffffffffffffffffffffffffffffffffff16857fe4ac5b7fce62b2918a206b7590602000c01a356bfd85dcbe4cd3de9e21f305b486602001516040516109f4919061220d565b60405180910390a4505050610a076114a7565b50565b6003602052805f5260405f205f91509050805f015490806001015f9054906101000a90046fffffffffffffffffffffffffffffffff1690806002015f9054906101000a900473ffffffffffffffffffffffffffffffffffffffff16905083565b610a72611382565b610a7a6114b0565b565b7f000000000000000000000000000000000000000000000000000000000000000081565b5f610aa9611409565b610ab161144f565b3373ffffffffffffffffffffffffffffffffffffffff167f000000000000000000000000000000000000000000000000000000000000000073ffffffffffffffffffffffffffffffffffffffff16636352211e856040518263ffffffff1660e01b8152600401610b219190611cf0565b602060405180830381865afa158015610b3c573d5f5f3e3d5ffd5b505050506040513d601f19601f82011682018060405250810190610b60919061223a565b73ffffffffffffffffffffffffffffffffffffffff1614610bb6576040517f08c379a0000000000000000000000000000000000000000000000000000000008152600401610bad906122af565b60405180910390fd5b5f826fffffffffffffffffffffffffffffffff1611610c0a576040517f08c379a0000000000000000000000000000000000000000000000000000000008152600401610c0190612317565b60405180910390fd5b3073ffffffffffffffffffffffffffffffffffffffff167f000000000000000000000000000000000000000000000000000000000000000073ffffffffffffffffffffffffffffffffffffffff1663081812fc856040518263ffffffff1660e01b8152600401610c7a9190611cf0565b602060405180830381865afa158015610c95573d5f5f3e3d5ffd5b505050506040513d601f19601f82011682018060405250810190610cb9919061223a565b73ffffffffffffffffffffffffffffffffffffffff161480610d7157507f000000000000000000000000000000000000000000000000000000000000000073ffffffffffffffffffffffffffffffffffffffff1663e985e9c533306040518363ffffffff1660e01b8152600401610d31929190611ff6565b602060405180830381865afa158015610d4c573d5f5f3e3d5ffd5b505050506040513d601f19601f82011682018060405250810190610d7091906121e2565b5b610db0576040517f08c379a0000000000000000000000000000000000000000000000000000000008152600401610da79061237f565b60405180910390fd5b5f6040518060600160405280858152602001846fffffffffffffffffffffffffffffffff168152602001610de2610fdf565b73ffffffffffffffffffffffffffffffffffffffff1681525090508060035f8681526020019081526020015f205f820151815f01556020820151816001015f6101000a8154816fffffffffffffffffffffffffffffffff02191690836fffffffffffffffffffffffffffffffff1602179055506040820151816002015f6101000a81548173ffffffffffffffffffffffffffffffffffffffff021916908373ffffffffffffffffffffffffffffffffffffffff160217905550905050610eb284600461151190919063ffffffff16565b507f000000000000000000000000000000000000000000000000000000000000000073ffffffffffffffffffffffffffffffffffffffff166342842e0e3330876040518463ffffffff1660e01b8152600401610f1093929190612183565b5f604051808303815f87803b158015610f27575f5ffd5b505af1158015610f39573d5f5f3e3d5ffd5b505050503373ffffffffffffffffffffffffffffffffffffffff16847f2b59867ac8ba2f161bc3f3c87f85b7e1750f738a9711b83e93fbe3776725132a85604051610f84919061220d565b60405180910390a36001915050610f996114a7565b92915050565b5f60025f9054906101000a900460ff16905090565b610fbc611382565b610fc55f611528565b565b60065481565b610fd5611382565b610fdd6115e9565b565b5f5f5f9054906101000a900473ffffffffffffffffffffffffffffffffffffffff16905090565b61100e611875565b60035f8381526020019081526020015f206040518060600160405290815f8201548152602001600182015f9054906101000a90046fffffffffffffffffffffffffffffffff166fffffffffffffffffffffffffffffffff166fffffffffffffffffffffffffffffffff168152602001600282015f9054906101000a900473ffffffffffffffffffffffffffffffffffffffff1673ffffffffffffffffffffffffffffffffffffffff1673ffffffffffffffffffffffffffffffffffffffff16815250509050919050565b60605f6110e5600461164b565b9050808460ff161061114d575f67ffffffffffffffff81111561110b5761110a61239d565b5b60405190808252806020026020018201604052801561114457816020015b611131611875565b8152602001906001900390816111295790505b509150506112f8565b5f8460ff168261115d9190612150565b90505f818560ff16106111705781611175565b8460ff165b90505f8167ffffffffffffffff8111156111925761119161239d565b5b6040519080825280602002602001820160405280156111cb57816020015b6111b8611875565b8152602001906001900390816111b05790505b5090505f5f90505b828110156112ef575f6111fe828a60ff166111ee91906123ca565b600461165e90919063ffffffff16565b905060035f8281526020019081526020015f206040518060600160405290815f8201548152602001600182015f9054906101000a90046fffffffffffffffffffffffffffffffff166fffffffffffffffffffffffffffffffff166fffffffffffffffffffffffffffffffff168152602001600282015f9054906101000a900473ffffffffffffffffffffffffffffffffffffffff1673ffffffffffffffffffffffffffffffffffffffff1673ffffffffffffffffffffffffffffffffffffffff16815250508383815181106112d6576112d56123fd565b5b60200260200101819052505080806001019150506111d3565b50809450505050505b92915050565b611306611382565b5f73ffffffffffffffffffffffffffffffffffffffff168173ffffffffffffffffffffffffffffffffffffffff1603611376575f6040517f1e4fbdf700000000000000000000000000000000000000000000000000000000815260040161136d9190611d09565b60405180910390fd5b61137f81611528565b50565b61138a611675565b73ffffffffffffffffffffffffffffffffffffffff166113a8610fdf565b73ffffffffffffffffffffffffffffffffffffffff1614611407576113cb611675565b6040517f118cdaa70000000000000000000000000000000000000000000000000000000081526004016113fe9190611d09565b60405180910390fd5b565b600260015403611445576040517f3ee5aeb500000000000000000000000000000000000000000000000000000000815260040160405180910390fd5b6002600181905550565b611457610f9f565b1561148e576040517fd93c066500000000000000000000000000000000000000000000000000000000815260040160405180910390fd5b565b5f61149f835f01835f1b61167c565b905092915050565b60018081905550565b6114b8611778565b5f60025f6101000a81548160ff0219169083151502179055507f5db9ee0a495bf2e6ff9c91a7834c1ba4fdd244a5e8aa4e537bd38aeae4b073aa6114fa611675565b6040516115079190611d09565b60405180910390a1565b5f611520835f01835f1b6117b8565b905092915050565b5f5f5f9054906101000a900473ffffffffffffffffffffffffffffffffffffffff169050815f5f6101000a81548173ffffffffffffffffffffffffffffffffffffffff021916908373ffffffffffffffffffffffffffffffffffffffff1602179055508173ffffffffffffffffffffffffffffffffffffffff168173ffffffffffffffffffffffffffffffffffffffff167f8be0079c531659141344cd1fd0a4f28419497f9722a3daafe3b4186f6b6457e060405160405180910390a35050565b6115f161144f565b600160025f6101000a81548160ff0219169083151502179055507f62e78cea01bee320cd4e420270b5ea74000d11b0c9f74754ebdbfc544b05a258611634611675565b6040516116419190611d09565b60405180910390a1565b5f611657825f0161181f565b9050919050565b5f61166b835f018361182e565b5f1c905092915050565b5f33905090565b5f5f836001015f8481526020019081526020015f205490505f811461176d575f6001826116a99190612150565b90505f6001865f01805490506116bf9190612150565b9050808214611725575f865f0182815481106116de576116dd6123fd565b5b905f5260205f200154905080875f0184815481106116ff576116fe6123fd565b5b905f5260205f20018190555083876001015f8381526020019081526020015f2081905550505b855f018054806117385761173761242a565b5b600190038181905f5260205f20015f90559055856001015f8681526020019081526020015f205f905560019350505050611772565b5f9150505b92915050565b611780610f9f565b6117b6576040517f8dfc202b00000000000000000000000000000000000000000000000000000000815260040160405180910390fd5b565b5f6117c38383611855565b61181557825f0182908060018154018082558091505060019003905f5260205f20015f9091909190915055825f0180549050836001015f8481526020019081526020015f208190555060019050611819565b5f90505b92915050565b5f815f01805490509050919050565b5f825f018281548110611844576118436123fd565b5b905f5260205f200154905092915050565b5f5f836001015f8481526020019081526020015f20541415905092915050565b60405180606001604052805f81526020015f6fffffffffffffffffffffffffffffffff1681526020015f73ffffffffffffffffffffffffffffffffffffffff1681525090565b5f82825260208201905092915050565b7f44697265637420455448206e6f742061636365707465640000000000000000005f82015250565b5f6118ff6017836118bb565b915061190a826118cb565b602082019050919050565b5f6020820190508181035f83015261192c816118f3565b9050919050565b5f73ffffffffffffffffffffffffffffffffffffffff82169050919050565b5f819050919050565b5f61197561197061196b84611933565b611952565b611933565b9050919050565b5f6119868261195b565b9050919050565b5f6119978261197c565b9050919050565b6119a78161198d565b82525050565b5f6020820190506119c05f83018461199e565b92915050565b5f5ffd5b5f5ffd5b5f819050919050565b6119e0816119ce565b81146119ea575f5ffd5b50565b5f813590506119fb816119d7565b92915050565b5f60208284031215611a1657611a156119c6565b5b5f611a23848285016119ed565b91505092915050565b5f611a3682611933565b9050919050565b611a4681611a2c565b8114611a50575f5ffd5b50565b5f81359050611a6181611a3d565b92915050565b5f5ffd5b5f5ffd5b5f5ffd5b5f5f83601f840112611a8857611a87611a67565b5b8235905067ffffffffffffffff811115611aa557611aa4611a6b565b5b602083019150836001820283011115611ac157611ac0611a6f565b5b9250929050565b5f5f5f5f5f60808688031215611ae157611ae06119c6565b5b5f611aee88828901611a53565b9550506020611aff88828901611a53565b9450506040611b10888289016119ed565b935050606086013567ffffffffffffffff811115611b3157611b306119ca565b5b611b3d88828901611a73565b92509250509295509295909350565b5f7fffffffff0000000000000000000000000000000000000000000000000000000082169050919050565b611b8081611b4c565b82525050565b5f602082019050611b995f830184611b77565b92915050565b611ba8816119ce565b82525050565b5f6fffffffffffffffffffffffffffffffff82169050919050565b611bd281611bae565b82525050565b611be181611a2c565b82525050565b5f606082019050611bfa5f830186611b9f565b611c076020830185611bc9565b611c146040830184611bd8565b949350505050565b5f611c268261197c565b9050919050565b611c3681611c1c565b82525050565b5f602082019050611c4f5f830184611c2d565b92915050565b611c5e81611bae565b8114611c68575f5ffd5b50565b5f81359050611c7981611c55565b92915050565b5f5f60408385031215611c9557611c946119c6565b5b5f611ca2858286016119ed565b9250506020611cb385828601611c6b565b9150509250929050565b5f8115159050919050565b611cd181611cbd565b82525050565b5f602082019050611cea5f830184611cc8565b92915050565b5f602082019050611d035f830184611b9f565b92915050565b5f602082019050611d1c5f830184611bd8565b92915050565b611d2b816119ce565b82525050565b611d3a81611bae565b82525050565b611d4981611a2c565b82525050565b606082015f820151611d635f850182611d22565b506020820151611d766020850182611d31565b506040820151611d896040850182611d40565b50505050565b5f606082019050611da25f830184611d4f565b92915050565b5f60ff82169050919050565b611dbd81611da8565b8114611dc7575f5ffd5b50565b5f81359050611dd881611db4565b92915050565b5f5f60408385031215611df457611df36119c6565b5b5f611e0185828601611dca565b9250506020611e1285828601611dca565b9150509250929050565b5f81519050919050565b5f82825260208201905092915050565b5f819050602082019050919050565b606082015f820151611e595f850182611d22565b506020820151611e6c6020850182611d31565b506040820151611e7f6040850182611d40565b50505050565b5f611e908383611e45565b60608301905092915050565b5f602082019050919050565b5f611eb282611e1c565b611ebc8185611e26565b9350611ec783611e36565b805f5b83811015611ef7578151611ede8882611e85565b9750611ee983611e9c565b925050600181019050611eca565b5085935050505092915050565b5f6020820190508181035f830152611f1c8184611ea8565b905092915050565b5f60208284031215611f3957611f386119c6565b5b5f611f4684828501611a53565b91505092915050565b5f81519050611f5d816119d7565b92915050565b5f60208284031215611f7857611f776119c6565b5b5f611f8584828501611f4f565b91505092915050565b7f494e53554646494349454e545f42414c414e43450000000000000000000000005f82015250565b5f611fc26014836118bb565b9150611fcd82611f8e565b602082019050919050565b5f6020820190508181035f830152611fef81611fb6565b9050919050565b5f6040820190506120095f830185611bd8565b6120166020830184611bd8565b9392505050565b7f494e53554646494349454e545f414c4c4f57414e4345000000000000000000005f82015250565b5f6120516016836118bb565b915061205c8261201d565b602082019050919050565b5f6020820190508181035f83015261207e81612045565b9050919050565b7f4e487b71000000000000000000000000000000000000000000000000000000005f52601160045260245ffd5b5f6120bc826119ce565b91506120c7836119ce565b92508282026120d5816119ce565b915082820484148315176120ec576120eb612085565b5b5092915050565b7f4e487b71000000000000000000000000000000000000000000000000000000005f52601260045260245ffd5b5f61212a826119ce565b9150612135836119ce565b925082612145576121446120f3565b5b828204905092915050565b5f61215a826119ce565b9150612165836119ce565b925082820390508181111561217d5761217c612085565b5b92915050565b5f6060820190506121965f830186611bd8565b6121a36020830185611bd8565b6121b06040830184611b9f565b949350505050565b6121c181611cbd565b81146121cb575f5ffd5b50565b5f815190506121dc816121b8565b92915050565b5f602082840312156121f7576121f66119c6565b5b5f612204848285016121ce565b91505092915050565b5f6020820190506122205f830184611bc9565b92915050565b5f8151905061223481611a3d565b92915050565b5f6020828403121561224f5761224e6119c6565b5b5f61225c84828501612226565b91505092915050565b7f4e4f545f414c4c4f5745440000000000000000000000000000000000000000005f82015250565b5f612299600b836118bb565b91506122a482612265565b602082019050919050565b5f6020820190508181035f8301526122c68161228d565b9050919050565b7f50524943455f213e5f5a45524f000000000000000000000000000000000000005f82015250565b5f612301600d836118bb565b915061230c826122cd565b602082019050919050565b5f6020820190508181035f83015261232e816122f5565b9050919050565b7f4e4f545f415050524f56454400000000000000000000000000000000000000005f82015250565b5f612369600c836118bb565b915061237482612335565b602082019050919050565b5f6020820190508181035f8301526123968161235d565b9050919050565b7f4e487b71000000000000000000000000000000000000000000000000000000005f52604160045260245ffd5b5f6123d4826119ce565b91506123df836119ce565b92508282019050808211156123f7576123f6612085565b5b92915050565b7f4e487b71000000000000000000000000000000000000000000000000000000005f52603260045260245ffd5b7f4e487b71000000000000000000000000000000000000000000000000000000005f52603160045260245ffdfea264697066735822122094a87be4cce2e9ddcf48adfb4bd456cc6fd04fbbe8cdff2e09b196e1b35a8c0764736f6c634300081c0033","linkReferences":{}},"methodIdentifiers":{"coin()":"11df9995","feePercent()":"7fd6f15c","getAssetDetails(uint256)":"a1f24b3d","getListedAssets(uint8,uint8)":"d2ba02c0","listNFT(uint256,uint128)":"56b2a1fb","nft()":"47ccca02","nfts(uint256)":"265aa621","onERC721Received(address,address,uint256,bytes)":"150b7a02","owner()":"8da5cb5b","pause()":"8456cb59","paused()":"5c975abb","purchaseNFT(uint256)":"150bde03","renounceOwnership()":"715018a6","setPlatformFee(uint256)":"12e8e2c3","transferOwnership(address)":"f2fde38b","unpause()":"3f4ba83a"},"id":58}